:100000000C9472000C9493000C9493000C94930045
:100010000C9493000C947F0B0C94540B0C94930051
:100020000C9493000C9493000C9493000C94930004
:100030000C9493000C9493000C9493000C949300F4
:100040000C9493000C9493000C9493000C949300E4
:100050000C9493000C9493000C9493000C949300D4
:100060000C9493000C94760A0C9493000C949300D7
:100070000C9493000C9493000C9493000C949300B4
:100080000C9493000C9493000C9493000C949300A4
:100090000C9493000C9493000C9493000C94930094
:1000A0000C9493000C9493000C9493000C94930084
:1000B0000C9493000C9493000C9493000C94930074
:1000C0000C9493000C9493000C9493000C94B30A3A
:1000D0000C9493000C9493000C9493000C94930054
:1000E0000C94930011241FBECFEFD1E2DEBFCDBF31
:1000F00000E00CBF13E0A0E0B2E0E8E0F4E300E0D1
:100100000BBF02C007900D92A830B107D9F713E0DA
:10011000A8E0B3E001C01D92A532B107E1F70E944B
:10012000670E0C94021A0C940000DF93CF93CDB7A6
:10013000DEB7A7E2B0E0E7E2F0E08081876F8C9362
:10014000A8E2B0E0E8E2F0E0808180788C93CF9183
:10015000DF9108950F931F93DF93CF93CDB7DEB751
:10016000C057D0400FB6F894DEBF0FBECDBFFE0122
:10017000E359FF4F80E090E0A0E8BFE380839183E4
:10018000A283B3838E0107591F4FFE01E359FF4F2E
:10019000608171818281938126E636E646E655E4E8
:1001A0000E94BF14DC01CB01F80180839183A283FC
:1001B000B383FE01E759FF4F608171818281938192
:1001C00020E030E040E85FE30E94C516882344F455
:1001D000FE01E959FF4F81E090E09183808364C084
:1001E000FE01E759FF4F608171818281938120E098
:1001F0003FEF4FE757E40E94651618160CF043C016
:10020000FE01E359FF4F608171818281938120E07B
:1002100030E040E251E40E94BF14DC01CB018E01CA
:1002200009591F4FBC01CD010E94E912DC01CB012D
:10023000F801918380831FC0FE01EB59FF4F80E7D7
:1002400091E091838083FE01EB59FF4F8081918182
:100250000197F1F7FE01EB59FF4F91838083DE0197
:10026000A959BF4FFE01E959FF4F80819181019744
:1002700011969C938E93FE01E959FF4F80819181E5
:100280000097D1F627C08E0109591F4FFE01E7598B
:10029000FF4F60817181828193810E94E912DC01AC
:1002A000CB01F80191838083DE01AD59BF4FFE0180
:1002B000E959FF4F808191818D939C93FE01ED5907
:1002C000FF4F808191810197F1F7FE01ED59FF4FBA
:1002D00091838083A8E2B0E0E8E2F0E080818E7F45
:1002E0008C93A8E2B0E0E8E2F0E080818D7F8C930F
:1002F000E8E2F0E080E38083A8E2B0E0E8E2F0E04A
:10030000808184608C93FE01E15AFF4F80E090E091
:10031000A0EAB0E480839183A283B3838E01055A5F
:100320001F4FFE01E15AFF4F6081718182819381ED
:1003300026E636E646E655E40E94BF14DC01CB0112
:10034000F80180839183A283B383FE01E55AFF4FB6
:10035000608171818281938120E030E040E85FE339
:100360000E94C516882344F4FE01E75AFF4F81E03E
:1003700090E09183808364C0FE01E55AFF4F608165
:1003800071818281938120E03FEF4FE757E40E9423
:10039000651618160CF043C0FE01E15AFF4F60814C
:1003A00071818281938120E030E040E251E40E943B
:1003B000BF14DC01CB018E01075A1F4FBC01CD01D8
:1003C0000E94E912DC01CB01F801918380831FC0F8
:1003D000FE01E95AFF4F80E791E091838083FE019F
:1003E000E95AFF4F808191810197F1F7FE01E95AA7
:1003F000FF4F91838083DE01A75ABF4FFE01E75A6A
:10040000FF4F80819181019711969C938E93FE01FD
:10041000E75AFF4F808191810097D1F627C08E0166
:10042000075A1F4FFE01E55AFF4F6081718182819B
:1004300093810E94E912DC01CB01F8019183808352
:10044000DE01AB5ABF4FFE01E75AFF4F8081918119
:100450008D939C93FE01EB5AFF4F80819181019710
:10046000F1F7FE01EB5AFF4F91838083A8E2B0E0E1
:10047000E8E2F0E080818B7F8C93FE01EF5AFF4F22
:1004800080E090E0A0E8BFE380839183A283B38300
:100490008E01035B1F4FFE01EF5AFF4F6081718198
:1004A0008281938126E636E646E655E40E94BF1433
:1004B000DC01CB01F80180839183A283B383FE0129
:1004C000E35BFF4F608171818281938120E030E0A6
:1004D00040E85FE30E94C516882344F4FE01E55B13
:1004E000FF4F81E090E09183808364C0FE01E35B75
:1004F000FF4F608171818281938120E03FEF4FE760
:1005000057E40E94651618160CF043C0FE01EF5A1E
:10051000FF4F608171818281938120E030E040E271
:1005200051E40E94BF14DC01CB018E01055B1F4F1B
:10053000BC01CD010E94E912DC01CB01F8019183DD
:1005400080831FC0FE01E75BFF4F80E791E091834E
:100550008083FE01E75BFF4F808191810197F1F776
:10056000FE01E75BFF4F91838083DE01A55BBF4FF8
:10057000FE01E55BFF4F80819181019711969C936D
:100580008E93FE01E55BFF4F808191810097D1F64C
:1005900027C08E01055B1F4FFE01E35BFF4F6081AB
:1005A0007181828193810E94E912DC01CB01F80103
:1005B00091838083DE01A95BBF4FFE01E55BFF4FA6
:1005C000808191818D939C93FE01E95BFF4F808137
:1005D00091810197F1F7FE01E95BFF4F91838083E1
:1005E000A8E2B0E0E8E2F0E080818E7F8C93A8E2A0
:1005F000B0E0E8E2F0E080818D7F8C93E8E2F0E00B
:1006000080E38083A8E2B0E0E8E2F0E080818460EB
:100610008C93FE01ED5BFF4F80E090E0A0EAB0E438
:1006200080839183A283B3838E01015C1F4FFE01FF
:10063000ED5BFF4F608171818281938126E636E612
:1006400046E655E40E94BF14DC01CB01F80180832B
:100650009183A283B383FE01FF96608171818281C1
:10066000938120E030E040E85FE30E94C5168823D4
:100670002CF481E090E09EAF8DAF46C0FE01FF9666
:10068000608171818281938120E03FEF4FE757E4E1
:100690000E946516181664F5FE01ED5BFF4F608140
:1006A00071818281938120E030E040E251E40E9438
:1006B000BF14DC01CB01BC01CD010E94E912DC01B9
:1006C000CB019EAF8DAF0FC080E791E09CAF8BAFA9
:1006D0008BAD9CAD0197F1F79CAF8BAF8DAD9EAD0F
:1006E00001979EAF8DAF8DAD9EAD009769F716C097
:1006F000FE01FF9660817181828193810E94E912DF
:10070000DC01CB019EAF8DAF8DAD9EAD9AAF89AFB1
:1007100089AD9AAD0197F1F79AAF89AFA8E2B0E041
:10072000E8E2F0E080818B7F8C9380E090E0A0E8AD
:10073000BFE38DAB9EABAFABB8AF6DA97EA98FA960
:1007400098AD26E636E646E655E40E94BF14DC0185
:10075000CB0189AB9AABABABBCAB69A97AA98BA92E
:100760009CA920E030E040E85FE30E94C5168823A2
:100770002CF481E090E098AB8FA73FC069A97AA9DB
:100780008BA99CA920E03FEF4FE757E40E94651634
:1007900018164CF56DA97EA98FA998AD20E030E020
:1007A00040E251E40E94BF14DC01CB01BC01CD0149
:1007B0000E94E912DC01CB0198AB8FA70FC080E744
:1007C00091E09EA78DA78DA59EA50197F1F79EA705
:1007D0008DA78FA598A9019798AB8FA78FA598A9EA
:1007E000009769F714C069A97AA98BA99CA90E94EE
:1007F000E912DC01CB0198AB8FA78FA598A99CA724
:100800008BA78BA59CA50197F1F79CA78BA7A8E2C6
:10081000B0E0E8E2F0E080818E7F8C93A8E2B0E067
:10082000E8E2F0E080818D7F8C93E8E2F0E080E305
:100830008083A8E2B0E0E8E2F0E0808184608C93FD
:1008400080E090E0A0EAB0E48FA398A7A9A7BAA798
:100850006FA178A589A59AA526E636E646E655E471
:100860000E94BF14DC01CB018BA39CA3ADA3BEA34C
:100870006BA17CA18DA19EA120E030E040E85FE368
:100880000E94C51688232CF481E090E09AA389A3E6
:100890003FC06BA17CA18DA19EA120E03FEF4FE75F
:1008A00057E40E94651618164CF56FA178A589A526
:1008B0009AA520E030E040E251E40E94BF14DC0140
:1008C000CB01BC01CD010E94E912DC01CB019AA34E
:1008D00089A30FC080E791E098A38F8F8F8D98A197
:1008E0000197F1F798A38F8F89A19AA101979AA3F5
:1008F00089A389A19AA1009769F714C06BA17CA173
:100900008DA19EA10E94E912DC01CB019AA389A3CB
:1009100089A19AA19E8F8D8F8D8D9E8D0197F1F764
:100920009E8F8D8FA8E2B0E0E8E2F0E080818B7FBF
:100930008C9380E090E0A0E8BFE3898F9A8FAB8F23
:10094000BC8F698D7A8D8B8D9C8D26E636E646E6CA
:1009500055E40E94BF14DC01CB018D8B9E8BAF8BC5
:10096000B88F6D897E898F89988D20E030E040E8CE
:100970005FE30E94C51688232CF481E090E09C8BF5
:100980008B8B3FC06D897E898F89988D20E03FEFEA
:100990004FE757E40E94651618164CF5698D7A8D5D
:1009A0008B8D9C8D20E030E040E251E40E94BF142A
:1009B000DC01CB01BC01CD010E94E912DC01CB01BD
:1009C0009C8B8B8B0FC080E791E09A8B898B8989F8
:1009D0009A890197F1F79A8B898B8B899C8901976A
:1009E0009C8B8B8B8B899C89009769F714C06D89D0
:1009F0007E898F89988D0E94E912DC01CB019C8B46
:100A00008B8B8B899C89988B8F878F859889019791
:100A1000F1F7988B8F87A8E2B0E0E8E2F0E0808100
:100A20008E7F8C93A8E2B0E0E8E2F0E080818D7FD9
:100A30008C93E8E2F0E080E28083A8E2B0E0E8E2B4
:100A4000F0E0808184608C9380E090E0A0E8BFE3D8
:100A50008B879C87AD87BE876B857C858D859E85C2
:100A600026E636E646E655E40E94BF14DC01CB01DB
:100A70008F839887A987BA876F81788589859A85BA
:100A800020E030E040E85FE30E94C51688232CF4A4
:100A900081E090E09E838D833FC06F81788589855A
:100AA0009A8520E03FEF4FE757E40E94651618163D
:100AB0004CF56B857C858D859E8520E030E040E29D
:100AC00051E40E94BF14DC01CB01BC01CD010E94A6
:100AD000E912DC01CB019E838D830FC080E791E09A
:100AE0009C838B838B819C810197F1F79C838B8303
:100AF0008D819E8101979E838D838D819E8100973C
:100B000069F714C06F81788589859A850E94E912FA
:100B1000DC01CB019E838D838D819E819A838983A5
:100B200089819A810197F1F79A838983A8E2B0E0DD
:100B3000E8E2F0E080818B7F8C93C059DF4F0FB6E5
:100B4000F894DEBF0FBECDBFCF91DF911F910F9103
:100B50000895DF93CF93CDB7DEB72E970FB6F894F5
:100B6000DEBF0FBECDBF80E090E0A0E8BFE38B8783
:100B70009C87AD87BE876B857C858D859E8526E6A7
:100B800036E646E655E40E94BF14DC01CB018F83B4
:100B90009887A987BA876F81788589859A8520E0AB
:100BA00030E040E85FE30E94C51688232CF481E022
:100BB00090E09E838D833FC06F81788589859A857B
:100BC00020E03FEF4FE757E40E94651618164CF5FA
:100BD0006B857C858D859E8520E030E040E251E488
:100BE0000E94BF14DC01CB01BC01CD010E94E912BF
:100BF000DC01CB019E838D830FC080E791E09C8355
:100C00008B838B819C810197F1F79C838B838D81F2
:100C10009E8101979E838D838D819E81009769F7C8
:100C200014C06F81788589859A850E94E912DC015C
:100C3000CB019E838D838D819E819A838983898157
:100C40009A810197F1F79A83898388E20E943D0691
:100C500081E00E943D0686E00E943D068EE00E94F3
:100C60003D0680E80E943D062E960FB6F894DEBF42
:100C70000FBECDBFCF91DF910895DF93CF93CDB756
:100C8000DEB76E970FB6F894DEBF0FBECDBF8E8F66
:100C90008E8D8D8F8D8D807F8D8FA8E2B0E0E8E204
:100CA000F0E080818F708C93A8E2B0E0E8E2F0E0A1
:100CB00090818D8D892B8C93A8E2B0E0E8E2F0E082
:100CC00080818E7F8C93A8E2B0E0E8E2F0E0808142
:100CD0008D7F8C93A8E2B0E0E8E2F0E08081846050
:100CE0008C9380E090E0A0EAB0E4898F9A8FAB8F7C
:100CF000BC8F698D7A8D8B8D9C8D26E636E646E617
:100D000055E40E94BF14DC01CB018D8B9E8BAF8B11
:100D1000B88F6D897E898F89988D20E030E040E81A
:100D20005FE30E94C51688232CF481E090E09C8B41
:100D30008B8B3FC06D897E898F89988D20E03FEF36
:100D40004FE757E40E94651618164CF5698D7A8DA9
:100D50008B8D9C8D20E030E040E251E40E94BF1476
:100D6000DC01CB01BC01CD010E94E912DC01CB0109
:100D70009C8B8B8B0FC080E791E09A8B898B898944
:100D80009A890197F1F79A8B898B8B899C890197B6
:100D90009C8B8B8B8B899C89009769F714C06D891C
:100DA0007E898F89988D0E94E912DC01CB019C8B92
:100DB0008B8B8B899C89988B8F878F8598890197DE
:100DC000F1F7988B8F87A8E2B0E0E8E2F0E080814D
:100DD0008B7F8C938E8D8F708E8F8E8D8295807F82
:100DE0008E8FA8E2B0E0E8E2F0E080818F708C9313
:100DF000A8E2B0E0E8E2F0E090818E8D892B8C9340
:100E0000A8E2B0E0E8E2F0E080818E7F8C93A8E277
:100E1000B0E0E8E2F0E080818D7F8C93A8E2B0E062
:100E2000E8E2F0E0808184608C9380E090E0A0EACA
:100E3000B0E48B879C87AD87BE876B857C858D856D
:100E40009E8526E636E646E655E40E94BF14DC01A0
:100E5000CB018F839887A987BA876F817885898529
:100E60009A8520E030E040E85FE30E94C5168823C1
:100E70002CF481E090E09E838D833FC06F81788564
:100E800089859A8520E03FEF4FE757E40E94651679
:100E900018164CF56B857C858D859E8520E030E0AD
:100EA00040E251E40E94BF14DC01CB01BC01CD0142
:100EB0000E94E912DC01CB019E838D830FC080E785
:100EC00091E09C838B838B819C810197F1F79C83BC
:100ED0008B838D819E8101979E838D838D819E81E1
:100EE000009769F714C06F81788589859A850E947B
:100EF000E912DC01CB019E838D838D819E819A83D3
:100F0000898389819A810197F1F79A838983A8E27D
:100F1000B0E0E8E2F0E080818B7F8C936E960FB6B4
:100F2000F894DEBF0FBECDBFCF91DF910895DF9360
:100F3000CF93CDB7DEB76E970FB6F894DEBF0FBE76
:100F4000CDBF8E8F8E8D8D8F8D8D807F8D8FA8E202
:100F5000B0E0E8E2F0E080818F708C93A8E2B0E02E
:100F6000E8E2F0E090818D8D892B8C93A8E2B0E0CF
:100F7000E8E2F0E0808181608C93A8E2B0E0E8E2F2
:100F8000F0E080818D7F8C93A8E2B0E0E8E2F0E0B1
:100F9000808184608C9380E090E0A0EAB0E4898F47
:100FA0009A8FAB8FBC8F698D7A8D8B8D9C8D26E649
:100FB00036E646E655E40E94BF14DC01CB018D8B7A
:100FC0009E8BAF8BB88F6D897E898F89988D20E03D
:100FD00030E040E85FE30E94C51688232CF481E0EE
:100FE00090E09C8B8B8B3FC06D897E898F89988D1B
:100FF00020E03FEF4FE757E40E94651618164CF5C6
:10100000698D7A8D8B8D9C8D20E030E040E251E43B
:101010000E94BF14DC01CB01BC01CD010E94E9128A
:10102000DC01CB019C8B8B8B0FC080E791E09A8B0E
:10103000898B89899A890197F1F79A8B898B8B899A
:101040009C8901979C8B8B8B8B899C89009769F776
:1010500014C06D897E898F89988D0E94E912DC0108
:10106000CB019C8B8B8B8B899C89988B8F878F85F1
:1010700098890197F1F7988B8F87A8E2B0E0E8E2B2
:10108000F0E080818B7F8C938E8D8F708E8F8E8D14
:101090008295807F8E8FA8E2B0E0E8E2F0E0808168
:1010A0008F708C93A8E2B0E0E8E2F0E090818E8D42
:1010B000892B8C93A8E2B0E0E8E2F0E080818160C7
:1010C0008C93A8E2B0E0E8E2F0E080818D7F8C9321
:1010D000A8E2B0E0E8E2F0E0808184608C9380E0F8
:1010E00090E0A0EAB0E48B879C87AD87BE876B85D4
:1010F0007C858D859E8526E636E646E655E40E948B
:10110000BF14DC01CB018F839887A987BA876F81D1
:10111000788589859A8520E030E040E85FE30E9489
:10112000C51688232CF481E090E09E838D833FC018
:101130006F81788589859A8520E03FEF4FE757E4F6
:101140000E94651618164CF56B857C858D859E85ED
:1011500020E030E040E251E40E94BF14DC01CB010A
:10116000BC01CD010E94E912DC01CB019E838D837D
:101170000FC080E791E09C838B838B819C810197DA
:10118000F1F79C838B838D819E8101979E838D8354
:101190008D819E81009769F714C06F81788589855C
:1011A0009A850E94E912DC01CB019E838D838D819B
:1011B0009E819A83898389819A810197F1F79A8325
:1011C0008983A8E2B0E0E8E2F0E080818B7F8C9335
:1011D0006E960FB6F894DEBF0FBECDBFCF91DF91F4
:1011E0000895DF93CF93CDB7DEB780E80E943D0628
:1011F000CF91DF910895DF93CF930F920F92CDB7E8
:10120000DEB79A8389830AC0E981FA8180810E94CE
:10121000970789819A8101969A838983E981FA8166
:101220008081882389F70F900F90CF91DF910895E7
:10123000DF93CF9300D00F92CDB7DEB789836A8357
:101240008981282F30E03C832B838B819C818230E5
:101250009105D9F02B813C812330310534F48B8109
:101260009C818130910561F01EC02B813C8123302F
:10127000310581F08B819C818430910581F013C010
:101280008A8181580E943D060EC08A8181540E9445
:101290003D0609C08A818D560E943D0604C08A81A0
:1012A0008D520E943D060F900F900F900F90CF919E
:1012B000DF910895DF93CF93CDB7DEB727970FB6B1
:1012C000F894DEBF0FBECDBF8A836B835D834C83F2
:1012D0003F832E8319828A81882319F08B8188238A
:1012E00019F40E94F10804C08A816B810E941809D8
:1012F0008E819F818530910519F089818130A9F413
:101300008C819D8120E137E2B9010E94B719CB01A0
:10131000C0969093190380931803809118039091BD
:1013200019030E94970781E089838E819F81843011
:10133000910519F08981813011F58C819D8128EE0C
:1013400033E0B9010E94B719CB0190931B0380933E
:101350001A0380911A0390911B032AE030E0B9012F
:101360000E94B719C0969093240380932303809121
:101370002303909124030E94970781E089838E8143
:101380009F818330910519F08981813011F58C811D
:101390009D8124E630E0B9010E94B719CB019093FA
:1013A0001B0380931A0380911A0390911B032AE078
:1013B00030E0B9010E94B719C09690932003809342
:1013C0001F0380911F03909120030E94970781E0E3
:1013D00089838E819F818230910519F089818130C6
:1013E00011F58C819D812AE030E0B9010E94B71986
:1013F000CB0190931B0380931A0380911A03909161
:101400001B032AE030E0B9010E94B719C0969093FF
:101410001D0380931C0380911C0390911D030E9467
:10142000970781E089838E819F818130910519F032
:101430008981813091F48C819D812AE030E0B9016D
:101440000E94B719C0969093220380932103809144
:101450002103909122030E9497078E819F818630FD
:1014600091051CF085E40E94970727960FB6F89423
:10147000DEBF0FBECDBFCF91DF910895DF93CF9335
:10148000CDB7DEB7E1ECF0E01082E0ECF0E01082E6
:10149000E2ECF0E086E08083E4ECF0E08FE580832E
:1014A000E5ECF0E01082E1ECF0E088E98083CF9198
:1014B000DF910895DF93CF93CDB7DEB7E1EDF0E094
:1014C0001082E0EDF0E01082E2EDF0E086E0808353
:1014D000E4EDF0E08FE58083E5EDF0E01082E1EDF2
:1014E000F0E088E98083CF91DF9108951F920F92F9
:1014F0000FB60F9200905B000F9211242F938F93E1
:101500009F93EF93FF93DF93CF93CDB7DEB7E6ECD6
:10151000F0E0808180931E03E6EDF0E080911E03F1
:10152000808380910C0390910D0320911E03FC0198
:10153000E85FFC4F208380910C0390910D0301968E
:1015400090930D0380930C03CF91DF91FF91EF9166
:101550009F918F912F910F9000925B000F900FBE83
:101560000F901F9018951F920F920FB60F92009038
:101570005B000F9211248F93EF93FF93DF93CF9330
:10158000CDB7DEB7E6EDF0E0808180931E03E6EC98
:10159000F0E080911E038083CF91DF91FF91EF9166
:1015A0008F910F9000925B000F900FBE0F901F90D5
:1015B0001895DF93CF93CDB7DEB7A1E2B0E0E1E2BB
:1015C000F0E080818F608C93A2E2B0E0E2E2F0E094
:1015D0008081807F8C93AAE0B1E0EAE0F1E0808135
:1015E00088618C93ABE0B1E0EBE0F1E08081886151
:1015F0008C93CF91DF910895DF93CF93CDB7DEB772
:10160000ADE2B0E0EDE2F0E080818F7E8C93AEE25F
:10161000B0E0EEE2F0E0808180618C93CF91DF91C9
:101620000895DF93CF93CDB7DEB7ADE2B0E0EDE242
:10163000F0E080818F7D8C93AEE2B0E0EEE2F0E0EE
:10164000808180628C93CF91DF910895DF93CF9357
:10165000CDB7DEB7F894AAE6B0E0EAE6F0E0808124
:1016600082608C93ADE3B0E0EDE3F0E080818061D7
:101670008C937894CF91DF910895DF93CF93CDB77A
:10168000DEB7F894AAE6B0E0EAE6F0E08081886090
:101690008C93ADE3B0E0EDE3F0E0808180628C9369
:1016A0007894CF91DF9108951F920F920FB60F9209
:1016B00011248F939F93AF93BF93DF93CF93CDB7B5
:1016C000DEB78091120390911303A0911403B0919F
:1016D00015030196A11DB11D80931203909313036E
:1016E000A0931403B0931503CF91DF91BF91AF91F5
:1016F0009F918F910F900FBE0F901F9018951F9282
:101700000F920FB60F9211248F939F93AF93BF93B5
:10171000DF93CF93CDB7DEB780910E0390910F0387
:10172000A0911003B09111030196A11DB11D8093EA
:101730000E0390930F03A0931003B0931103CF9166
:10174000DF91BF91AF919F918F910F900FBE0F903E
:101750001F901895DF93CF930F920F92CDB7DEB7FE
:101760008A8319828A818F708A83E2E2F0E0808125
:1017700089838981807F898399818A81892B898363
:10178000E2E2F0E0898180830F900F90CF91DF91AA
:101790000895DF93CF93CDB7DEB786E00E94AA0B02
:1017A000CF91DF910895DF93CF93CDB7DEB789E076
:1017B0000E94AA0BCF91DF910895DF93CF93CDB70D
:1017C000DEB785E00E94AA0BCF91DF910895DF93E9
:1017D000CF93CDB7DEB78AE00E94AA0BCF91DF91FD
:1017E0000895DF93CF93CDB7DEB784E00E94AA0BB4
:1017F000CF91DF910895DF93CF93CDB7DEB782E02D
:101800000E94AA0BCF91DF910895DF93CF93CDB7BC
:10181000DEB781E00E94AA0BCF91DF910895DF939C
:10182000CF93CDB7DEB788E00E94AA0BCF91DF91AE
:101830000895DF93CF93CDB7DEB780E00E94AA0B67
:10184000CF91DF910895DF93CF93CDB7DEB72C977B
:101850000FB6F894DEBF0FBECDBF9A87898780E0B0
:1018600090E0A0E0B0E08D839E83AF83B8871982BB
:101870001A821B821C8289859A85CC01A0E0B0E087
:10188000BC01CD010E944917DC01CB01BC01CD0197
:1018900028E431EE42E850E40E94B915DC01CB01A6
:1018A0008D839E83AF83B8876D817E818F8198857C
:1018B0000E94E912DC01CB01CC01A0E0B0E08983F9
:1018C0009A83AB83BC83109212031092130310927D
:1018D00014031092150310920E0310920F0310922E
:1018E00010031092110320911203309113034091C1
:1018F0001403509115031C8689819A81AB81BC81A8
:10190000281739074A075B0710F081E08C87209180
:101910000E0330910F0340911003509111031B8669
:1019200089819A81AB81BC81281739074A075B07F7
:1019300010F091E09B878C859B85892B882399F2F9
:101940000E94190C2C960FB6F894DEBF0FBECDBFC7
:10195000CF91DF910895DF93CF93CDB7DEB72A976C
:101960000FB6F894DEBF0FBECDBF9A87898780E09F
:1019700090E0A0E0B0E08D839E83AF83B8871982AA
:101980001A821B821C8289859A85CC01A0E0B0E076
:10199000BC01CD010E944917DC01CB01BC01CD0186
:1019A00025EE30ED4AEA50E40E94B915DC01CB0186
:1019B0008D839E83AF83B8876D817E818F8198856B
:1019C0000E94E912DC01CB0189839A83AB83BC833B
:1019D0001092120310921303109214031092150325
:1019E0002091120330911303409114035091150379
:1019F00089819A81AB81BC8182179307A407B507BF
:101A000078F70E94190C2A960FB6F894DEBF0FBE25
:101A1000CDBFCF91DF910895DF93CF930F920F92B7
:101A2000CDB7DEB79A8389830E94C90B89819A81D9
:101A30000E94AB0C0F900F90CF91DF910895DF9330
:101A4000CF930F920F92CDB7DEB79A8389830E940E
:101A5000D30B89819A810E94AB0C0F900F90CF918C
:101A6000DF910895DF93CF930F920F92CDB7DEB73A
:101A70009A8389830E94DD0B89819A810E94230CBD
:101A80000F900F90CF91DF910895DF93CF930F9236
:101A90000F92CDB7DEB79A8389830E94E70B8981C5
:101AA0009A810E94230C0F900F90CF91DF9108959F
:101AB000DF93CF930F920F92CDB7DEB79A838983CE
:101AC0000E94F10B89819A81880F991F9A838983DB
:101AD00089819A810E94230C0F900F90CF91DF9102
:101AE0000895DF93CF930F920F92CDB7DEB79A830D
:101AF00089830E94FB0B89819A81880F991F9A83A1
:101B0000898389819A810E94230C0F900F90CF9135
:101B1000DF910895DF93CF930F920F92CDB7DEB789
:101B20009A8389830E94050C89819A81880F991F65
:101B30009A83898389819A810E94230C0F900F9048
:101B4000CF91DF910895DF93CF930F920F92CDB78E
:101B5000DEB79A8389830E940F0C89819A81880F4E
:101B6000991F9A83898389819A810E94230C0F90FF
:101B70000F90CF91DF910895DF93CF93CDB7DEB76C
:101B8000A7E2B0E0E7E2F0E0808188608C93A8E211
:101B9000B0E0E8E2F0E08081877F8C93CF91DF9125
:101BA0000895DF93CF930F92CDB7DEB71982E6E2A7
:101BB000F0E080818983898188608983E8E2F0E0B0
:101BC000898180830F90CF91DF910895DF93CF9328
:101BD0000F92CDB7DEB71982E6E2F0E0808189830B
:101BE0008981877F8983E8E2F0E0898180830F9093
:101BF000CF91DF910895DF93CF93CDB7DEB7E1E2C8
:101C0000F1E01082E5E2F1E08FEF8083E4E2F1E0C1
:101C100081E08083E9E2F1E01082E8E2F1E08FEF19
:101C20008083EBE2F1E01082EAE2F1E08FEF808363
:101C3000EDE2F1E01082ECE2F1E08FEF8083E0E290
:101C4000F1E089EA8083E1E2F1E08BE08083CF91EB
:101C5000DF910895DF93CF930F920F92CDB7DEB748
:101C600089836A83E8E2F1E089818083EAE2F1E036
:101C70008A8180830F900F90CF91DF910895DF9339
:101C8000CF93CDB7DEB70E9495000E94D90A0E947B
:101C9000FC0A0E94110B0E94BC0DCF91DF910895A8
:101CA000DF93CF93CDB7DEB7F8940E943F0E0E942A
:101CB0003E0A0E945A0A0E943F0E0E94260B0E9472
:101CC0003D0B0E94FB0D7894CF91DF9108950F9307
:101CD0001F93DF93CF93CDB7DEB7CD55D0400FB66E
:101CE000F894DEBF0FBECDBF0E94500EFE01EF5A2A
:101CF000FF4F11821082FE01E15BFF4F11821082C3
:101D0000FE01E35BFF4F11821082FE01E55BFF4F96
:101D100011821082FE01E75BFF4F11821082FE01EB
:101D2000E95BFF4F11821082E4E0F1E08FEF8083E6
:101D300085EF65EF0E942A0EFE01ED5BFF4F80E00C
:101D400090E0A0E2B1E480839183A283B3838E010B
:101D5000015C1F4FFE01ED5BFF4F6081718182814D
:101D6000938126E636E646E655E40E94BF14DC0180
:101D7000CB01F80180839183A283B383FE01FF9698
:101D8000608171818281938120E030E040E85FE3EF
:101D90000E94C51688232CF481E090E09EAF8DAFA1
:101DA00046C0FE01FF96608171818281938120E0AF
:101DB0003FEF4FE757E40E946516181664F5FE01E1
:101DC000ED5BFF4F608171818281938120E030E083
:101DD00040E251E40E94BF14DC01CB01BC01CD0103
:101DE0000E94E912DC01CB019EAF8DAF0FC080E7EE
:101DF00091E09CAF8BAF8BAD9CAD0197F1F79CAFA1
:101E00008BAF8DAD9EAD01979EAF8DAF8DAD9EAD6D
:101E1000009769F716C0FE01FF966081718182818B
:101E200093810E94E912DC01CB019EAF8DAF8DAD95
:101E30009EAD9AAF89AF89AD9AAD0197F1F79AAF90
:101E400089AFFE01ED5AFF4F809108038083809196
:101E50000903882F90E0FE01E65AFF4FC097918357
:101E6000808380910A03882F90E0FE01E85AFF4F9B
:101E7000C0979183808380910B03882F90E0FE01AF
:101E8000EA5AFF4FC09791838083FE01E65AFF4FC5
:101E90002081318184E690E0289FA001299F500D88
:101EA000389F500D1124FE01E85AFF4F8081918127
:101EB0009C01220F331FC901880F991F880F991F9A
:101EC000820F931F9A01280F391FDE01AC5ABF4FB2
:101ED000FE01EA5AFF4F80819181820F931F119674
:101EE0009C938E93809108038C3659F481EE61EEB9
:101EF0000E942A0EFE01EC5AFF4F808191810E94C0
:101F0000320D80910803823759F481EE61EE0E9410
:101F10002A0EFE01EC5AFF4F808191810E94450DEF
:101F20001092080310920D0310920C0380911E036F
:101F3000282F30E06E963FAF2EAF6E976E968EAD27
:101F40009FAD6E978E36910509F4DDC06E96EEADAD
:101F5000FFAD6E97EF36F1058CF56E962EAD3FAD69
:101F60006E972436310509F46DC06E968EAD9FAD27
:101F70006E97853691058CF46E96EEADFFAD6E973B
:101F8000E136F10509F455C06E962EAD3FAD6E9762
:101F90002236310509F487C095C26E968EAD9FAD8D
:101FA0006E978736910509F46EC06E96EEADFFAD63
:101FB0006E97E836F10509F496C084C26E962EAD90
:101FC0003FAD6E972437310509F44DC06E968EAD46
:101FD0009FAD6E978537910584F46E96EEADFFAD9B
:101FE0006E97E037F10509F49EC06E962EAD3FADB9
:101FF0006E972337310579F165C26E968EAD9FAD30
:102000006E978837910551F16E96EEADFFAD6E97E4
:10201000E937F10509F457C06E962EAD3FAD6E97C6
:102020002737310509F04EC20E94190C0E94C90BD6
:102030004BC20E94190C8AE590E00E94320D10926A
:102040001E0342C20E94190C8AE590E00E94450DD1
:1020500010921E0339C20E94190C36C20E94190C3C
:102060000E94D30B31C2DE01AF5ABF4FFE01EF5ABF
:10207000FF4F808191818095909511969C938E93CE
:1020800010921E0321C2DE01A15BBF4FFE01E15B86
:10209000FF4F808191818095909511969C938E93AE
:1020A00010921E0311C2DE01A35BBF4FFE01E35B72
:1020B000FF4F808191818095909511969C938E938E
:1020C00010921E0301C2DE01A55BBF4FFE01E55B5E
:1020D000FF4F808191818095909511969C938E936E
:1020E00010921E03F1C1DE01A75BBF4FFE01E75B4B
:1020F000FF4F808191818095909511969C938E934E
:1021000010921E03E1C1DE01A95BBF4FFE01E95B36
:10211000FF4F808191818095909511969C938E932D
:1021200010921E03D1C10E94190C0E94D10D80E0B3
:1021300090E8ABE3B5E48DAB9EABAFABB8AF6DA9A8
:102140007EA98FA998AD26E636E646E655E40E94BC
:10215000BF14DC01CB0189AB9AABABABBCAB69A9BB
:102160007AA98BA99CA920E030E040E85FE30E94B7
:10217000C51688232CF481E090E098AB8FA73FC070
:1021800069A97AA98BA99CA920E03FEF4FE757E402
:102190000E94651618164CF56DA97EA98FA998ADF9
:1021A00020E030E040E251E40E94BF14DC01CB01AA
:1021B000BC01CD010E94E912DC01CB0198AB8FA7D5
:1021C0000FC080E791E09EA78DA78DA59EA50197E2
:1021D000F1F79EA78DA78FA598A9019798AB8FA718
:1021E0008FA598A9009769F714C069A97AA98BA946
:1021F0009CA90E94E912DC01CB0198AB8FA78FA5A7
:1022000098A99CA78BA78BA59CA50197F1F79CA7E4
:102210008BA780E090E0AAEFB4E48FA398A7A9A7CA
:10222000BAA76FA178A589A59AA526E636E646E65F
:1022300055E40E94BF14DC01CB018BA39CA3ADA38A
:10224000BEA36BA17CA18DA19EA120E030E040E85F
:102250005FE30E94C51688232CF481E090E09AA3E6
:1022600089A33FC06BA17CA18DA19EA120E03FEF7F
:102270004FE757E40E94651618164CF56FA178A534
:1022800089A59AA520E030E040E251E40E94BF1405
:10229000DC01CB01BC01CD010E94E912DC01CB01C4
:1022A0009AA389A30FC080E791E098A38F8F8F8DA9
:1022B00098A10197F1F798A38F8F89A19AA101970F
:1022C0009AA389A389A19AA1009769F714C06BA169
:1022D0007CA18DA19EA10E94E912DC01CB019AA3F1
:1022E00089A389A19AA19E8F8D8F8D8D9E8D019737
:1022F000F1F79E8F8D8F0E94E60D80E090EAACE0B2
:10230000B6E4898F9A8FAB8FBC8F698D7A8D8B8D58
:102310009C8D26E636E646E655E40E94BF14DC01B5
:10232000CB018D8B9E8BAF8BB88F6D897E898F890A
:10233000988D20E030E040E85FE30E94C5168823D6
:102340002CF481E090E09C8B8B8B3FC06D897E8963
:102350008F89988D20E03FEF4FE757E40E94651684
:1023600018164CF5698D7A8D8B8D9C8D20E030E0B0
:1023700040E251E40E94BF14DC01CB01BC01CD015D
:102380000E94E912DC01CB019C8B8B8B0FC080E794
:1023900091E09A8B898B89899A890197F1F79A8BB9
:1023A000898B8B899C8901979C8B8B8B8B899C89D2
:1023B000009769F714C06D897E898F89988D0E9476
:1023C000E912DC01CB019C8B8B8B8B899C89988BD0
:1023D0008F878F8598890197F1F7988B8F8780E099
:1023E00090E8ABE3B5E48B879C87AD87BE876B85B0
:1023F0007C858D859E8526E636E646E655E40E9478
:10240000BF14DC01CB018F839887A987BA876F81BE
:10241000788589859A8520E030E040E85FE30E9476
:10242000C51688232CF481E090E09E838D833FC005
:102430006F81788589859A8520E03FEF4FE757E4E3
:102440000E94651618164CF56B857C858D859E85DA
:1024500020E030E040E251E40E94BF14DC01CB01F7
:10246000BC01CD010E94E912DC01CB019E838D836A
:102470000FC080E791E09C838B838B819C810197C7
:10248000F1F79C838B838D819E8101979E838D8341
:102490008D819E81009769F717C06F817885898546
:1024A0009A850E94E912DC01CB019E838D838D8188
:1024B0009E819A83898389819A810197F1F79A8312
:1024C000898302C00E94190CFE01EF5AFF4F8081E0
:1024D0009181009741F0A5E0B1E0E5E0F1E0808175
:1024E00081608C9307C0A5E0B1E0E5E0F1E0808178
:1024F0008E7F8C93FE01E15BFF4F8081918100977D
:1025000041F0A5E0B1E0E5E0F1E0808183608C93EB
:1025100007C0A5E0B1E0E5E0F1E080818D7F8C931C
:10252000FE01E35BFF4F80819181009741F0A5E0C0
:10253000B1E0E5E0F1E0808184608C9307C0A5E024
:10254000B1E0E5E0F1E080818B7F8C93FE01E55BFB
:10255000FF4F80819181009741F0A5E0B1E0E5E077
:10256000F1E0808188608C9307C0A5E0B1E0E5E0F0
:10257000F1E08081877F8C93FE01E75BFF4F8081D4
:102580009181009741F0A5E0B1E0E5E0F1E08081C4
:1025900088618C9307C0A5E0B1E0E5E0F1E08081BF
:1025A0008F7E8C93FE01E95BFF4F808191810097C4
:1025B00041F0A5E0B1E0E5E0F1E0808180628C933C
:1025C000B7CBA5E0B1E0E5E0F1E080818F7D8C93B1
:1025D000AFCBEF92FF920F931F937B018C0120E012
:1025E00030E040E05FE40E94951688238CF0C8013B
:1025F000B70120E030E040E05FE40E9461140E94F7
:10260000F5169B01AC01205030404040504806C0B8
:10261000C801B7010E94F5169B01AC01B901CA01BE
:102620001F910F91FF90EF900895A0E0B0E0EBE1D3
:10263000F3E10C94CB19DC012B01FA019C9192304F
:1026400008F439C1EB018881823008F433C1943039
:1026500069F4843009F02FC111969C9111978981FA
:10266000981709F428C1A0E0B2E025C1843009F42C
:1026700021C18230A9F4923009F01DC19A01AD0147
:1026800088E0EA010990AE01E90109929E018150BA
:10269000C1F7E201898111969C918923818308C148
:1026A000923009F407C112962D903C901397EB01DC
:1026B0008A819B811496AD90BD90CD90DC90179748
:1026C000EC80FD800E811F819101281B390BB9011F
:1026D00037FF04C066277727621B730B60327105D2
:1026E0000CF061C0121613066CF537014801062E76
:1026F00004C096948794779467940A94D2F721E063
:1027000030E040E050E004C0220F331F441F551F4B
:102710006A95D2F721503040404050402E213F2151
:1027200040235123211531054105510521F021E0B8
:1027300030E040E050E079018A01E628F7280829D6
:1027400019293CC0232BD1F1260E371E3501460135
:10275000062E04C096948794779467940A94D2F7CF
:1027600021E030E040E050E004C0220F331F441F5E
:10277000551F6A95D2F721503040404050402A21E1
:102780003B214C215D21211531054105510521F0E9
:1027900021E030E040E050E059016A01A628B72866
:1027A000C828D9280BC0821593052CF01C01AA2437
:1027B000BB24650103C0EE24FF24870111969C9180
:1027C000D20111968C91981709F445C0992339F0DC
:1027D000A80197012A193B094C095D0906C0A60109
:1027E00095012E193F09400B510B57FD08C011826E
:1027F0003382228224833583468357831DC081E040
:1028000081833382228288279927DC01821B930BE4
:10281000A40BB50B84839583A683B7830DC0220FC9
:10282000331F441F551F248335834683578382817A
:1028300093810197938382832481358146815781D7
:10284000DA01C9010197A109B1098F5F9F4FAF4F0D
:10285000BF4328F30BC0918333822282EA0CFB1C16
:102860000C1D1D1DE482F5820683178383E080839F
:10287000248135814681578157FF1AC0C901AA2793
:1028800097FDA095BA2F81709070A070B07056958A
:10289000479537952795822B932BA42BB52B8483B3
:1028A0009583A683B78382819381019693838283E4
:1028B000DF0101C0D201CD01CDB7DEB7E2E10C945A
:1028C000E719A0E2B0E0E7E6F4E10C94D7196983D8
:1028D0007A838B839C832D833E834F835887E9E0E3
:1028E000EE2EF12CEC0EFD1ECE010196B7010E94DA
:1028F000E6188E010F5E1F4FCE010596B8010E94AB
:10290000E6188A8991E089278A8BC701B801AE0150
:10291000475E5F4F0E9415130E941118A096E6E0D3
:102920000C94F319A0E2B0E0E8E9F4E10C94D719B3
:1029300069837A838B839C832D833E834F8358875F
:10294000F9E0EF2EF12CEC0EFD1ECE010196B70141
:102950000E94E6188E010F5E1F4FCE010596B8014A
:102960000E94E618C701B801AE01475E5F4F0E94A2
:1029700015130E941118A096E6E00C94F319A0E23A
:10298000B0E0E5ECF4E10C94CB1969837A838B8396
:102990009C832D833E834F835887CE010196BE01D1
:1029A000675F7F4F0E94E618CE010596BE016F5EFD
:1029B0007F4F0E94E6189985923088F0898982308D
:1029C000C8F0943019F4823051F404C0843029F4F2
:1029D000923081F480E092E0C6C0923049F420E069
:1029E0009A858A89981321E02A87CE010996BBC06F
:1029F000823049F420E09A858A89981321E02A8B55
:102A0000CE014196B0C02D843E844F8458886D8895
:102A10007E888F88988CEE24FF248701AA24BB240B
:102A2000650140E050E060E070E0E0E0F0E0C1010E
:102A300081709070892BE9F0E60CF71C081D191DB8
:102A40009A01AB012A0D3B1D4C1D5D1D80E090E0FD
:102A5000A0E0B0E0E614F7040805190520F481E0D1
:102A600090E0A0E0B0E0BA01A901480F591F6A1F29
:102A70007B1FAA0CBB1CCC1CDD1C97FE08C081E090
:102A800090E0A0E0B0E0A82AB92ACA2ADB2A319651
:102A9000E032F10549F0660C771C881C991C5694AD
:102AA000479437942794C3CFFA85EA892B893C89C8
:102AB0008B859C85280F391F2E5F3F4F17C0CA0199
:102AC00081709070892B61F016950795F794E794C3
:102AD00080E090E0A0E0B0E8E82AF92A0A2B1B2B5E
:102AE00076956795579547952F5F3F4F77FDE7CFD1
:102AF0000CC0440F551F661F771F17FD4160EE0C79
:102B0000FF1C001F111F21503040403090E059073A
:102B100090E0690790E4790760F32B8F3C8FDB012D
:102B2000CA018F779070A070B07080349105A105B4
:102B3000B10561F447FD0AC0E114F1040105110576
:102B400029F0405C5F4F6F4F7F4F40781A8EFE1721
:102B500011F081E08A8F4D8F5E8F6F8F78A383E0B5
:102B6000898FCE0149960E941118A096E2E10C943B
:102B7000E719A8E1B0E0EFEBF5E10C94D319698314
:102B80007A838B839C832D833E834F835887B9E060
:102B9000EB2EF12CEC0EFD1ECE010196B7010E942A
:102BA000E6188E010F5E1F4FCE010596B8010E94F8
:102BB000E6182985223008F47EC03989323010F4B5
:102BC000B8017CC08A859A8989278A87243011F0C8
:102BD000223031F4231709F06EC060E072E06EC05D
:102BE000343039F41D861E861F86188A1C861B8683
:102BF00004C0323021F484E08987B7015FC02B859F
:102C00003C858B899C89281B390B3C872B87ED845D
:102C1000FE840F851889AD88BE88CF88D88CEA14C9
:102C2000FB040C051D0540F4EE0CFF1C001F111FDA
:102C3000215030403C872B8720E030E040E050E0DE
:102C400080E090E0A0E0B0E460E070E0EA14FB0413
:102C50000C051D0540F0282B392B4A2B5B2BEA185D
:102C6000FB080C091D09B695A79597958795EE0C5D
:102C7000FF1C001F111F6F5F7F4F6F31710531F710
:102C8000DA01C9018F779070A070B070803491051F
:102C9000A105B10561F427FD0AC0E114F1040105A5
:102CA000110529F0205C3F4F4F4F5F4F20782D8753
:102CB0003E874F87588BBE01675F7F4FCB010E94D5
:102CC00011186896EAE00C94EF19A8E1B0E0EBE681
:102CD000F6E10C94D71969837A838B839C832D83C7
:102CE0003E834F83588789E0E82EF12CEC0EFD1EC1
:102CF000CE010196B7010E94E6188E010F5E1F4FAC
:102D0000CE010596B8010E94E6188985823040F010
:102D10008989823028F0C701B8010E945E1901C07C
:102D20008FEF6896E6E00C94F319A8E1B0E0EBE9C8
:102D3000F6E10C94D71969837A838B839C832D8366
:102D40003E834F83588789E0E82EF12CEC0EFD1E60
:102D5000CE010196B7010E94E6188E010F5E1F4F4B
:102D6000CE010596B8010E94E6188985823040F0B0
:102D70008989823028F0C701B8010E945E1901C01C
:102D80008FEF6896E6E00C94F319A8E1B0E0EBEC65
:102D9000F6E10C94D71969837A838B839C832D8306
:102DA0003E834F83588789E0E82EF12CEC0EFD1E00
:102DB000CE010196B7010E94E6188E010F5E1F4FEB
:102DC000CE010596B8010E94E6188985823040F050
:102DD0008989823028F0C701B8010E945E1901C0BC
:102DE00081E06896E6E00C94F319ACE0B0E0EBEF1C
:102DF000F6E10C94DB1969837A838B839C83CE0183
:102E00000196BE016B5F7F4F0E94E6188D81823074
:102E100061F1823050F1843021F48E81882351F1A8
:102E20002EC02F81388537FD20C06E812F313105AE
:102E30001CF06623F9F023C08EE190E0821B930B17
:102E400029853A854B855C8504C05695479537950D
:102E500027958A95D2F76623B1F050954095309525
:102E600021953F4F4F4F5F4F0EC020E030E040E0D4
:102E700050E009C02FEF3FEF4FEF5FE704C020E0C5
:102E800030E040E050E8B901CA012C96E2E00C9431
:102E9000F719A8E0B0E0EFE4F7E10C94D3197B0157
:102EA0008C01611571058105910519F482E0898312
:102EB00060C083E089838EE1C82ED12CDC82CB8276
:102EC000ED82FE820F831887C801B7010E94C217E6
:102ED000FC013197F7FF3BC0222733272E1B3F0B06
:102EE00057016801022E04C0D694C794B794A794E2
:102EF0000A94D2F740E050E060E070E081E090E0BA
:102F0000A0E0B0E004C0880F991FAA1FBB1F2A953C
:102F1000D2F70197A109B1098E219F21A023B123E6
:102F20000097A105B10521F041E050E060E070E0BC
:102F30004A295B296C297D294D835E836F837887BD
:102F40008EE190E08E1B9F0B9C838B8312C0309789
:102F500081F00E2E04C0EE0CFF1C001F111F0A94FE
:102F6000D2F7ED82FE820F831887CE1ADF0ADC8249
:102F7000CB821A82CE0101960E9411182896EAE0AF
:102F80000C94EF19EF92FF920F931F937B018C012A
:102F900080E0E81680E0F80681E0080780E0180786
:102FA00088F48FEFE816F1040105110531F028F0DF
:102FB00088E090E0A0E0B0E017C080E090E0A0E002
:102FC000B0E012C080E0E81680E0F80680E0080774
:102FD00081E0180728F088E190E0A0E0B0E004C0AC
:102FE00080E190E0A0E0B0E020E230E040E050E09E
:102FF000281B390B4A0B5B0B04C016950795F794F9
:10300000E7948A95D2F7F701E85FFD4F8081281B8E
:10301000310941095109C9011F910F91FF90EF90AA
:103020000895DF92EF92FF920F931F93FC01E480CB
:10303000F58006811781D1808081823048F480E05C
:1030400090E0A0E1B0E0E82AF92A0A2B1B2BA5C0EA
:10305000843009F49FC0823021F4EE24FF248701DC
:1030600005C0E114F1040105110519F4E0E0F0E0F8
:1030700096C0628173819FEF623879070CF05BC064
:1030800022E83FEF261B370B2A3131052CF020E0D8
:1030900030E040E050E02AC0B801A701022E04C091
:1030A00076956795579547950A94D2F781E090E019
:1030B000A0E0B0E004C0880F991FAA1FBB1F2A958B
:1030C000D2F70197A109B1098E219F21A023B12335
:1030D0000097A105B10521F081E090E0A0E0B0E00B
:1030E0009A01AB01282B392B4A2B5B2BDA01C90142
:1030F0008F779070A070B07080349105A105B105F4
:1031000039F427FF09C0205C3F4F4F4F5F4F04C089
:10311000215C3F4F4F4F5F4FE0E0F0E02030A0E0F8
:103120003A07A0E04A07A0E45A0710F0E1E0F0E017
:1031300079018A0127C06038710564F5FB01E15807
:10314000FF4FD801C7018F779070A070B0708034A6
:103150009105A105B10539F4E7FE0DC080E490E0CA
:10316000A0E0B0E004C08FE390E0A0E0B0E0E80EA3
:10317000F91E0A1F1B1F17FF05C016950795F79428
:10318000E794319687E016950795F794E7948A952A
:10319000D1F705C0EE24FF248701EFEFF0E06E2F9A
:1031A000679566276795902F9F77D794DD24D794EE
:1031B0008E2F8695492F462B582F5D29B701CA01BE
:1031C0001F910F91FF90EF90DF900895FC01DB01BC
:1031D000408151812281622F6F7770E0221F222768
:1031E000221F9381892F880F822B282F30E0991F6F
:1031F0009927991F11969C93119721153105A9F5CF
:10320000411551056105710511F482E037C082E86E
:103210009FEF13969C938E9312979A01AB0167E0F0
:10322000220F331F441F551F6A95D1F783E08C93FB
:103230000DC0220F331F441F551F12968D919C9174
:103240001397019713969C938E931297203080E0EA
:10325000380780E0480780E4580758F314962D9308
:103260003D934D935C93179708952F3F310579F463
:10327000411551056105710519F484E08C93089599
:1032800064FF03C081E08C9312C01C9210C02F57C2
:10329000304013963C932E93129783E08C9387E0F3
:1032A000440F551F661F771F8A95D1F770641496D7
:1032B0004D935D936D937C93179708951F93DC0155
:1032C000FB019C91923008F447C08081823008F461
:1032D00043C0943051F411961C91843099F581814A
:1032E000682F70E0611B71093FC0843021F092307B
:1032F00031F48230B9F18181882389F12DC0119692
:103300001C9111978230F1F081811817D9F412962F
:103310002D913C911397828193818217930794F0AA
:1033200028173907BCF014968D919D910D90BC9192
:10333000A02D2481358146815781281739074A07F6
:103340005B0718F4112341F00AC082179307A40702
:10335000B50740F4112319F061E070E005C06FEF8C
:103360007FEF02C060E070E0CB011F910895AA1BBF
:10337000BB1B51E107C0AA1FBB1FA617B70710F060
:10338000A61BB70B881F991F5A95A9F78095909592
:10339000BC01CD0108952F923F924F925F926F92A0
:1033A0007F928F929F92AF92BF92CF92DF92EF92D5
:1033B000FF920F931F93CF93DF93CDB7DEB7CA1B56
:1033C000DB0B0FB6F894DEBF0FBECDBF19942A8871
:1033D000398848885F846E847D848C849B84AA8429
:1033E000B984C884DF80EE80FD800C811B81AA81B6
:1033F000B981CE0FD11D0FB6F894DEBF0FBECDBF81
:08340000ED010895F894FFCFDF
:1034080000000000000000000001020203030303A3
:10341800040404040404040405050505050505055C
:10342800050505050505050506060606060606063C
:103438000606060606060606060606060606060624
:10344800060606060606060607070707070707070C
:1034580007070707070707070707070707070707F4
:1034680007070707070707070707070707070707E4
:1034780007070707070707070707070707070707D4
:1034880007070707070707070808080808080808BC
:1034980008080808080808080808080808080808A4
:1034A8000808080808080808080808080808080894
:1034B8000808080808080808080808080808080884
:1034C8000808080808080808080808080808080874
:1034D8000808080808080808080808080808080864
:1034E8000808080808080808080808080808080854
:1034F8000808080808080808080808080808080844
:0835080008080808080808087B
:00000001FF
